:02000000FD2AD7
:10000800FF00030E8301D8000A08D7008A018B1C61
:100018000F2856148B1057088A00580E8300FF0EBD
:040028007F0E09003E
:0E002C00533083120313FD00FD0B1A28080049
:10003A00243083120313FC00B530FD00FD0B232886
:0A004A00FC0B232800000000080052
:0C00540000000000000000000000080098
:1000600083120313E61B3628861337288617661B70
:100070003B2806133C280617E61A4028861241281A
:100080008616661A452806124628061655184A2866
:1000900006154B28061186152A208611E6195228C6
:1000A00086135328861766195728061358280617EB
:1000B000E6185C2886125D288616661861280612E6
:1000C0006228061655186628061567280611861533
:1000D0002A208611551C6E281D206F281620080026
:1000E0008312031355106508E600302055140800EC
:1000F00083120313F8010830FC00700DF80D74082A
:10010000F80203188528F8070310F00DFC0B7D2872
:020110000800E5
:0E0112008312031352088A005108820008006D
:10012000A228803083120313E100B528C030E1001B
:10013000B5289430E100B528D430E100B5288030EE
:10014000E100B528831203136108013A03199128CD
:100150006108023A031996286108033A031999289D
:100160006108043A03199C289F286203F000610883
:10017000F0077008E1007008E60030205510E40137
:1001800064086307840000080319CE286408630725
:1001900084000008E5007020E40AC0285514080017
:1001A00083120313FB01FA01F9018030F800F10C0E
:1001B000F00C031CE4287408F90775080318750F80
:1001C000FA070318FB0A0310F01FEC287408FA075B
:1001D00075080318750FFB07FB0CFA0CF90CF80CEB
:1001E000031CD7287B08F3007A08F2007908F10095
:0601F0007808F000080091
:1001F60083120313F801F9011030FC00710DF80D9C
:10020600F90D7408F8027508031C750FF902031836
:1002160013297408F80775080318750FF9070310F2
:0A022600F00DF10DFC0B012908009A
:1002300083120313DC1F2529270884002D3080003A
:10024000DB09DC09DB0A0319DC0A5B08F0005C0847
:10025000F100F10CF00CF113F10CF00CF113F10CB6
:10026000F00CF113F10CF00CF1137008DD0027080D
:10027000840000082D3A031957296430F4005D0802
:10028000F00078207008031953292708E000643033
:10029000F4005D08F00078203030F007600884003A
:1002A0007008800057292708840030308000270A12
:1002B000E0000A30F4005D08F00078200A30F40015
:1002C00078207808F0003030F0076008840070086B
:1002D000800002302707E0000A30F4005D08F000DB
:1002E00078207808F0003030F0076008840070084B
:1002F00080005B08DE005C08DF000F305B05F0006B
:100300005C08F1000030F1057008DE007108DF00C4
:100310007130F4000230F500D0207008DE00710862
:10032000DF0004302707E000E830F4000330F50078
:10033000FB203030F0076008840070088000053032
:100340002707E0006430F4000030F5005E08F0009C
:100350005F08F100FB200A30F4000030F500FB20BC
:100360007808F0007908F1003030F0076008840068
:100370007008800006302707E0000A30F4000030E3
:10038000F5005E08F0005F08F100FB200A30F40081
:100390000030F500FB207808F0007908F1003030DB
:1003A000F007600884007008800007302707E0002D
:1003B0000A30F4000030F5005E08F0005F08F1003C
:1003C000FB207808F0007908F1003030F007600871
:1003D0008400700880000130E60030200130E10028
:1003E0000130E2002830E30090200130E1000830C5
:0A03F000E2002708E3009020080057
:1003FA0083120313DB0183160915F2010830720216
:10040A000318292A83160911831209110330FD00E2
:10041A00FD0B0D2A831609158312091D212A72085C
:10042A00F1000130F000710803191F2AF00D701055
:10043A00FF3E192A7008DB046330FD00FD0B232AF6
:10044A0000000000F20A032A83125B08F000080089
:10045A00831603130915F401083074020318722A6B
:10046A007408F2000130F0000030F100720803193C
:10047A00432AF00DF10D7010FF3E3C2A70088312DA
:10048A005B05F20000307105F30000307306031DAE
:10049A00502A003072060319642A8316091183123E
:1004AA000911000000000000000000008316091571
:1004BA006330FD00FD0B5F2A00000000702A8316DE
:1004CA000911831209116330FD00FD0B6A2A00002D
:0C04DA00000083160915F40A312A0800FE
:1004E6008316031386110611061286120613861347
:1004F60083128611061186130613861206121D2014
:100506001D201D208616061686152A2086111D20FA
:1005160086152A2086111D2086152A2086111D2063
:10052600061286152A2086111D2086152A20861178
:100536008612861786152A2086111D208613061612
:1005460086152A208611061286152A2086111D2058
:1005560086152A208611061686152A2086111D2044
:10056600061286152A20861186170617861606167F
:0C05760086152A2086111D20551408004F
:1005820089208A110A128000840AD10A0319D20A28
:08059200F003031DC12A08005B
:10059A00831603130911831209110430FC001C305D
:1005AA00FD00FD0BD62AFC0BD62A0000831609157E
:1005BA006330FD00FD0BDF2A0000000083120919D9
:1005CA00F12A0430FC001C30FD00FD0BEA2AFC0B6A
:1005DA00EA2A0000F001FC2A0430FC001C30FD006D
:1005EA00FD0BF52AFC0BF52A00000130F00008008B
:1005FA0056248312031306108316061483128801E5
:10060A008316880101138B100B168B177322013086
:10061A00E60030200C30E60030200130E1000130E5
:10062A00E2003B30E30090200230E1000130E200BA
:10063A003030E30090204D30FB001930FC004F3081
:10064A00FD00FD0B262BFC0B262BFB0B262B00009B
:10065A0000000130E60030200C30E60030200F3078
:10066A0083169F041A30FB005E30FC006E30FD00DA
:10067A00FD0B3D2BFC0B3D2BFB0B3D2B00000130F2
:10068A008312E60030200C30E6003020CD2283129F
:10069A0003137008031D8D2BCC30DB002D22443050
:1006AA0083120313DB002D22143083120313FB0081
:1006BA000730FC001130FD00FD0B612BFC0B612B98
:1006CA00FB0B612B00000000CD22CC3083120313F8
:1006DA00DB002D22BE3083120313DB002D22FD2105
:1006EA007008D300D401FD217008F300F201530809
:1006FA007207F00073080318013E5407F1007008EE
:10070A00D3007108D4007008DB007108DC001821DE
:10071A004D30FB001930FC004F30FD00FD0B932BD0
:10072A00FC0B932BFB0B932B000000000130E6001F
:10073A0030205A08033A031DA42BE8305906031D3A
:10074A00052C0130E60030200130E1000130E200E2
:10075A002030E3009020CD22831203137008031D7A
:10076A00F22BCC30DB002D22443083120313DB0042
:10077A002D22143083120313FB000730FC001130C2
:10078A00FD00FD0BC62BFC0BC62BFB0BC62B00007A
:10079A000000CD22CC3083120313DB002D22BE30A1
:1007AA0083120313DB002D22FD217008D300D4012C
:1007BA00FD217008F300F20153087207F000730874
:1007CA000318013E5407F1007008D3007108D400E1
:1007DA007008DB007108DC0018214D30FB0019306D
:1007EA00FC004F30FD00FD0BF82BFC0BF82BFB0B2C
:1007FA00F82B00000000D901DA010130E6003020B0
:10080A00561C1D2C5408003C031D0D2C53081E3C7D
:10081A0003181A2C08140230FC004B30FD00FD0BA3
:10082A00142CFC0B142C08105610D90A0319DA0AD6
:04083A009E2B1E2CA7
:1008AC0020308400313083120313F0002430D10047
:0808BC000430D200C122080043
:0E0848004C346F346F347034653464340034D3
:02085600483424
:10085800543465346D34703420343D3420340034DD
:10086800533465346D346534733474346534723498
:060878002034343400348A
:10087E0045346C3465346334743472346F346E348E
:0A088E006334733420343334003433
:100898003034303430342E34303430343034303432
:0208A80000341A
:02400E00022985
:00000001FF
